:100000000C945C000C945B010C9434010C9479000A
:100010000C9479000C9479000C9479000C9479007C
:100020000C9479000C9479000C9479000C9479006C
:100030000C9479000C9482010C9479000C94790052
:100040000C94EA000C9479000C9479000C947900DB
:100050000C9479000C9479000C9479000C9479003C
:100060000C9479000C947900000000002400270013
:100070002A0000000000250028002B0004040404CE
:100080000404040402020202020203030303030342
:10009000010204081020408001020408102001021F
:1000A00004081020000000080002010000030407FB
:1000B000000000000000000011241FBECFEFD8E0B8
:1000C000DEBFCDBF11E0A0E0B1E0EAE6F5E002C09E
:1000D00005900D92A430B107D9F721E0A4E0B1E07A
:1000E00001C01D92A731B207E1F70E94A9010C944B
:1000F000B3020C940000E7EAF0E02491E3E9F0E0B9
:100100009491EFE7F0E0E491EE23C9F0222339F077
:10011000233001F1A8F4213019F1223029F1F0E067
:10012000EE0FFF1FEE58FF4FA591B4912FB7F89433
:10013000EC91811126C090959E239C932FBF08952A
:100140002730A9F02830C9F0243049F720918000E9
:100150002F7D03C0209180002F7720938000DFCF78
:1001600024B52F7724BDDBCF24B52F7DFBCF209185
:10017000B0002F772093B000D2CF2091B0002F7D18
:10018000F9CF9E2BDACF81E0809306011092050112
:100190001092040180E00C947B0008958091060188
:1001A0008823B9F0209104013091050180910C0160
:1001B00090910D01281739071CF081E00C947B0009
:1001C000809104019091050101969093050180931F
:1001D000040108951F920F920FB60F9211242F93CE
:1001E0003F938F939F93AF93BF938091130190910F
:1001F0001401A0911501B09116013091120123E074
:10020000230F2D3758F50196A11DB11D2093120122
:100210008093130190931401A0931501B0931601DC
:1002200080910E0190910F01A0911001B0911101E8
:100230000196A11DB11D80930E0190930F01A09313
:100240001001B0931101BF91AF919F918F913F9198
:100250002F910F900FBE0F901F90189526E8230F37
:100260000296A11DB11DD2CF1F920F920FB60F9211
:1002700011242F933F934F935F936F937F938F93AB
:100280009F93AF93BF93EF93FF93E0910201F0919F
:1002900003010995FF91EF91BF91AF919F918F91CC
:1002A0007F916F915F914F913F912F910F900FBE72
:1002B0000F901F9018951F920F920FB60F92112456
:1002C0002F933F934F935F936F937F938F939F935E
:1002D000AF93BF93EF93FF93E0910001F091010181
:1002E0000995FF91EF91BF91AF919F918F917F9170
:1002F0006F915F914F913F912F910F900FBE0F9093
:100300001F9018951F920F920FB60F9211242F93E2
:100310003F934F935F936F937F938F939F93AF938D
:10032000BF93EF93FF93E0910701F09108010995C6
:10033000FF91EF91BF91AF919F918F917F916F91BD
:100340005F914F913F912F910F900FBE0F901F9093
:100350001895789484B5826084BD84B5816084BD2D
:1003600085B5826085BD85B5816085BD80916E0053
:10037000816080936E001092810080918100826084
:1003800080938100809181008160809381008091C1
:1003900080008160809380008091B10084608093B0
:1003A000B1008091B00081608093B00080917A00AC
:1003B000846080937A0080917A00826080937A00D2
:1003C00080917A00816080937A0080917A008068C1
:1003D00080937A001092C100E3E9F0E02491EFE706
:1003E000F0E08491882399F090E0880F991FFC0138
:1003F000E859FF4FA591B491FC01EE58FF4F85914C
:1004000094918FB7F894EC91E22BEC938FBF83EC2F
:1004100090E09093010180930001809169008360D6
:1004200080936900E89A80E18093810010928000B7
:1004300081E080930B0120E233E030930A012093A6
:100440000901309387002093860091E19093810009
:100450002EEC30E0309308012093070180936F0069
:10046000C0E4CC24CA9483E0D82EE12CF12C00E027
:1004700010E0C0937C0080917A00806480937A00C1
:1004800080917A0086FDFCCF80917800A091790060
:10049000BA2FA82F23E530E00E94AC02A7019601F5
:1004A0000E945C0230930D0120930C01011511058F
:1004B00001F30E940000DDCF052E97FB1EF400948F
:1004C0000E94730257FD07D00E947B0207FC03D0F5
:1004D0004EF40C94730250954095309521953F4F02
:1004E0004F4F5F4F089590958095709561957F4F20
:1004F0008F4F9F4F0895A1E21A2EAA1BBB1BFD012F
:100500000DC0AA1FBB1FEE1FFF1FA217B307E407F2
:10051000F50720F0A21BB30BE40BF50B661F771F4A
:10052000881F991F1A9469F760957095809590952A
:100530009B01AC01BD01CF010895A29FB001B39F03
:10054000C001A39F700D811D1124911DB29F700DDC
:10055000811D1124911D08950E949D02B7FF0895E9
:0A056000821B930B0895F894FFCF5F
:04056A00CD00CD00F3
:00000001FF
